:040000001FEF00F0FE
:060008007D8276ED0CF094
:100018007D80E8CF6EF0E0CF6FF0F0A616EF00F02D
:1000280018EF00F019EF00F0F0506FC0E0FF6EC05D
:0A003800E8FF7D901000F2EF0BF0DE
:10100000003738392F3435362A3132332D23303DED
:101010002B00010E766E7050D8B411EF08F013EF6C
:1010200008F023EF08F07050D96EDA6ADF30E8324A
:10103000E832070B716E070E716421EF08F023EFA1
:1010400008F07AEF08F0000E766E9AEF08F0705014
:10105000D96EDA6ADF30E832E832070B716E010EC2
:10106000726E712A36EF08F0D8907236712E34EF16
:1010700008F07250FF0A736E7050D96EDA6ADF5052
:10108000070B020DF350570FD96EDA6ADECF74F0FA
:10109000DDCF75F074C0D9FF75C0DAFF7350DF166D
:1010A0009AEF08F07050D96EDA6ADF30E832E83231
:1010B000070B716E010E726E712A61EF08F0D89005
:1010C0007236712E5FEF08F07050D96EDA6ADF5019
:1010D000070B020DF350570FD96EDA6ADECF73F0AB
:1010E000DDCF74F073C0D9FF74C0DAFF7250DF1225
:1010F0009AEF08F07050D96EDA6ADFBC82EF08F020
:1011000085EF08F0010E86EF08F0000E716E726A2E
:101110007250000AD8B48FEF08F023EF08F0715036
:10112000000AD8B427EF08F0010AD8B452EF08F04B
:1011300023EF08F0765012007050D8A4A2EF08F008
:10114000A4EF08F00AEF09F0000E736E28EF09F023
:101150007050D96EDA6A030ED926DF50D8A4B3EFE7
:1011600008F0B5EF08F0B8EF08F0F19CC6EF08F012
:101170007050D96EDA6A030ED926DE04D8A4C3EF04
:1011800008F0C5EF08F0C6EF08F0F18C010E736EA1
:1011900028EF09F07050D96EDA6A030ED926DF50B5
:1011A000D8A4D5EF08F0D7EF08F0DAEF08F0F19AFD
:1011B000C6EF08F07050D96EDA6A030ED926DE0445
:1011C000D8A4E5EF08F0E7EF08F0C6EF08F0F18AE1
:1011D000C6EF08F07050D96EDA6A030ED926DF50D8
:1011E000D8A4F5EF08F0F7EF08F0FAEF08F0F1985F
:1011F000C6EF08F07050D96EDA6A030ED926DE0405
:10120000D8A405EF09F007EF09F0C6EF08F0F18860
:10121000C6EF08F07050D96EDA6A040ED926DF5096
:10122000716E726A7250000AD8B419EF09F0A4EF17
:1012300008F07150000AD8B4A8EF08F0010AD8B439
:10124000CAEF08F0030AD8B4EAEF08F0A4EF08F0F8
:1012500073501200010E776E7050D8B432EF09F05F
:1012600034EF09F044EF09F07050D96EDA6ADF30DC
:10127000E832E832070B726E070E726442EF09F033
:1012800044EF09F09BEF09F0000E776EB0EF09F024
:101290007050D96EDA6ADF30E832E832070B726ECE
:1012A000010E736E722A57EF09F0D8907336722EC2
:1012B00055EF09F07350FF0A746E7050D96EDA6AF8
:1012C000DF50070B020DF3504D0FD96EDA6ADECFF7
:1012D00075F0DDCF76F075C0D9FF76C0DAFF7450B7
:1012E000DF16B0EF09F07050D96EDA6ADF30E832FD
:1012F000E832070B726E010E736E722A82EF09F0EC
:10130000D8907336722E80EF09F07050D96EDA6A79
:10131000DF50070B020DF3504D0FD96EDA6ADECFA6
:1013200074F0DDCF75F074C0D9FF75C0DAFF73506B
:10133000DF12B0EF09F07150726E736A7350000AD9
:10134000D8B4A5EF09F044EF09F07250000AD8B400
:1013500048EF09F0010AD8B473EF09F044EF09F03F
:10136000775012007050D8A4B8EF09F0BAEF09F026
:1013700008EF0AF0000E736E28EF0AF0F28EF28882
:1013800026EF0AF0D08E7050D96EDA6A050ED92693
:10139000DF50D8A4CEEF09F0D0EF09F0D3EF09F079
:1013A000F28CE1EF09F07050D96EDA6A050ED92699
:1013B000DE04D8A4DEEF09F0E0EF09F0E1EF09F078
:1013C000F28EF086C0EF09F0D08E7050D96EDA6AD6
:1013D000050ED926DF50D8A4F0EF09F0F2EF09F09E
:1013E000F5EF09F0F28C03EF0AF07050D96EDA6A6B
:1013F000050ED926DE04D8A400EF0AF002EF0AF0A9
:1014000003EF0AF0F28EF088C0EF09F026EF0AF041
:101410007050D96EDA6A040ED926DF50716E726A86
:101420007250000AD8B417EF0AF006EF0AF07150B4
:10143000000AD8B4BEEF09F0010AD8B4C2EF09F02F
:10144000030AD8B4E4EF09F006EF0AF0010E736E58
:10145000735012007050D8A430EF0AF032EF0AF047
:1014600078EF0AF0000E736E92EF0AF07050D96EAA
:10147000DA6A050ED926DF50D8A441EF0AF043EF0F
:101480000AF046EF0AF0F08C54EF0AF07050D96E73
:10149000DA6A050ED926DE04D8A451EF0AF053EF1C
:1014A0000AF054EF0AF0F09C010E736E92EF0AF00E
:1014B0007050D96EDA6A050ED926DF50D8A463EFD2
:1014C0000AF065EF0AF068EF0AF0F09E54EF0AF0B8
:1014D0007050D96EDA6A050ED926DE04D8A473EFEF
:1014E0000AF075EF0AF054EF0AF0F08E54EF0AF0AC
:1014F0007050D96EDA6A040ED926DF50716E726AA6
:101500007250000AD8B487EF0AF032EF0AF0715037
:10151000010AD8B436EF0AF0030AD8B458EF0AF03B
:1015200032EF0AF0735012007350D8A49AEF0AF009
:101530009CEF0AF0C3EF0AF0000E766EE3EF0AF0BC
:101540007350D96EDA6ADECF70F0DDCF71F04DECFA
:101550000CF0E1EF0AF07350D96EDA6ADECF70F06A
:10156000DDCF71F038EC0CF0E1EF0AF07350D96E7A
:10157000DA6ADECF70F0DDCF71F023EC0CF0E1EF32
:101580000AF0E1EF0AF07350D96EDA6A040ED92638
:10159000DF50746E756A7550000AD8B4D2EF0AF045
:1015A000C1EF0AF07450000AD8B4A0EF0AF0010AA3
:1015B000D8B4ABEF0AF0030AD8B4B6EF0AF0C1EF23
:1015C0000AF0010E766E76501200010E0001806F57
:1015D0007B50D8A4EEEF0AF0F0EF0AF0F4EF0AF037
:1015E000000E806F1DEF0BF040C081F07B50D96E74
:1015F000DA6ADF500F0B7C6E81517C18F80B7C1877
:10160000816F7B50D96EDA6ADF38070B7C6E7C46BF
:101610007C467C4681517C18C70B7C18816F819D6C
:101620007B50D96EDA6ADFAE02D0818F02D0000122
:10163000819F810E786EC3EC0BF000018051120087
:101640007050D8A426EF0BF028EF0BF037EF0BF01B
:10165000000E736E57EF0BF0F29855EF0BF0F0960B
:101660002DEF0BF0F0982DEF0BF055EF0BF07050C5
:10167000D96EDA6A040ED926DF50716E726A725022
:10168000000AD8B446EF0BF035EF0BF07150000AAA
:10169000D8B42CEF0BF0010AD8B42FEF0BF0030AEB
:1016A000D8B432EF0BF035EF0BF0010E736E7350C0
:1016B00012007050D8A45FEF0BF061EF0BF070EFE9
:1016C0000BF0000E736E90EF0BF0F2928EEF0BF0BA
:1016D000F09066EF0BF0F09266EF0BF08EEF0BF0F0
:1016E0007050D96EDA6A040ED926DF50716E726AB4
:1016F0007250000AD8B47FEF0BF06EEF0BF0715010
:10170000000AD8B465EF0BF0010AD8B468EF0BF00B
:10171000030AD8B46BEF0BF06EEF0BF0010E736E93
:10172000735012007950D8A498EF0BF09AEF0BF099
:101730009EEF0BF0000E7A6EC1EF0BF079C070F0E7
:1017400020EC0BF07A6E79C070F059EC0BF07A1245
:1017500079C070F09CEC08F07A12790E706E2AEC69
:101760000AF07A1279C077F062EC0CF07A1279C044
:1017700073F094EC0AF07A1279C070F0B2EC09F0D0
:101780007A127A5012007850D8B4C9EF0BF0CBEF30
:101790000BF0DBEF0BF07850D96EDA6ADF30E8320D
:1017A000E832070B796E070E7964D9EF0BF0DBEFA7
:1017B0000BF0DFEF0BF0000E7A6EF0EF0BF078C05D
:1017C00070F009EC08F07A6E78C070F07850D96E3D
:1017D000DA6A000EDFBE010E716E2AEC09F07A6E35
:1017E0007A5012001A0EF66E180EF76E000EF86E92
:1017F00000EE43F010EE2BF00900F5CFEEFFE550C0
:10180000E150FAE100EE01F0420EEE6AE806FDE179
:101810007D907D92000189EF0CF0800F810F820F87
:10182000830F840F890F8A0F8B0F8C0F8D0F920FF0
:10183000930F940F950F960F0101010122120000E2
:0518400041010001025E
:1018460070507110D8A42AEF0CF02CEF0CF030EF8A
:101856000CF0000E726E36EF0CF070C02DF071C0F9
:101866002EF0010E726E7250120070507110D8A4D4
:101876003FEF0CF041EF0CF045EF0CF0000E726EEE
:101886004BEF0CF070C02FF071C030F0010E726E8D
:101896007250120070507110D8A454EF0CF056EF2D
:1018A6000CF05AEF0CF0000E726E60EF0CF070C088
:1018B60031F071C032F0010E726E72501200775024
:1018C600D8A468EF0CF06AEF0CF06EEF0CF0000E87
:1018D600786E74EF0CF07750020F706E09EC08F01A
:1018E600786E785012000600F2A87CEF0CF07EEFBE
:1018F6000CF07FEF0CF0F250F0A884EF0CF086EFBE
:101906000CF087EF0CF0F0507D92110097EC0CF084
:10191600670E796E92EC0BF06D0E7B6EE5EC0AF0BD
:1019260093EF0CF01FEF00F09AEC0CF0120012008F
:020000040030CA
:0E000000FF021F1EFF8181FF0FC00FE00F40A7
:00000001FF
